{
  "contractName": "BWS_DatabaseImmutable",
  "abi": [
    {
      "inputs": [],
      "stateMutability": "nonpayable",
      "type": "constructor"
    },
    {
      "inputs": [],
      "name": "NoData",
      "type": "error"
    },
    {
      "inputs": [],
      "name": "RowKeyInUse",
      "type": "error"
    },
    {
      "inputs": [],
      "name": "Unauthorized",
      "type": "error"
    },
    {
      "anonymous": false,
      "inputs": [
        {
          "indexed": true,
          "internalType": "address",
          "name": "owner",
          "type": "address"
        }
      ],
      "name": "LogOwner",
      "type": "event"
    },
    {
      "inputs": [
        {
          "internalType": "bytes32",
          "name": "",
          "type": "bytes32"
        },
        {
          "internalType": "bytes32",
          "name": "",
          "type": "bytes32"
        }
      ],
      "name": "myBytes32Table",
      "outputs": [
        {
          "internalType": "bool",
          "name": "created",
          "type": "bool"
        },
        {
          "internalType": "bytes32",
          "name": "value",
          "type": "bytes32"
        }
      ],
      "stateMutability": "view",
      "type": "function",
      "constant": true
    },
    {
      "inputs": [
        {
          "internalType": "bytes32",
          "name": "identity",
          "type": "bytes32"
        },
        {
          "internalType": "bytes32",
          "name": "key",
          "type": "bytes32"
        },
        {
          "internalType": "bytes32",
          "name": "data",
          "type": "bytes32"
        }
      ],
      "name": "insertBytes32",
      "outputs": [],
      "stateMutability": "nonpayable",
      "type": "function"
    },
    {
      "inputs": [
        {
          "internalType": "bytes32",
          "name": "identity",
          "type": "bytes32"
        },
        {
          "internalType": "bytes32",
          "name": "key",
          "type": "bytes32"
        }
      ],
      "name": "selectBytes32",
      "outputs": [
        {
          "internalType": "bytes32",
          "name": "",
          "type": "bytes32"
        }
      ],
      "stateMutability": "view",
      "type": "function",
      "constant": true
    }
  ],
  "bytecode": "0x60a060405234801561001057600080fd5b503373ffffffffffffffffffffffffffffffffffffffff1660808173ffffffffffffffffffffffffffffffffffffffff1660601b815250503373ffffffffffffffffffffffffffffffffffffffff167f2e6a5233203ef57f0bc3f27a09ec8db49caa33bdf9dcac109a226904362ca0d860405160405180910390a260805160601c6104fa6100af6000396000818160c7015261022501526104fa6000f3fe608060405234801561001057600080fd5b50600436106100415760003560e01c806341bf0c91146100465780635864a29114610076578063c4c42e7a146100a7575b600080fd5b610060600480360381019061005b919061039d565b6100c3565b60405161006d9190610477565b60405180910390f35b610090600480360381019061008b919061039d565b6101e5565b60405161009e92919061044e565b60405180910390f35b6100c160048036038101906100bc91906103dd565b610223565b005b60007f00000000000000000000000000000000000000000000000000000000000000008073ffffffffffffffffffffffffffffffffffffffff163373ffffffffffffffffffffffffffffffffffffffff161461014b576040517f82b4290000000000000000000000000000000000000000000000000000000000815260040160405180910390fd5b600080858152602001908152602001600020600084815260200190815260200160002060000160009054906101000a900460ff166101b5576040517fbad1e8f800000000000000000000000000000000000000000000000000000000815260040160405180910390fd5b60008085815260200190815260200160002060008481526020019081526020016000206001015491505092915050565b6000602052816000526040600020602052806000526040600020600091509150508060000160009054906101000a900460ff16908060010154905082565b7f00000000000000000000000000000000000000000000000000000000000000008073ffffffffffffffffffffffffffffffffffffffff163373ffffffffffffffffffffffffffffffffffffffff16146102a9576040517f82b4290000000000000000000000000000000000000000000000000000000000815260040160405180910390fd5b600080858152602001908152602001600020600084815260200190815260200160002060000160009054906101000a900460ff16610350576001600080868152602001908152602001600020600085815260200190815260200160002060000160006101000a81548160ff02191690831515021790555081600080868152602001908152602001600020600085815260200190815260200160002060010181905550610382565b6040517f5ba0cfd300000000000000000000000000000000000000000000000000000000815260040160405180910390fd5b50505050565b600081359050610397816104ad565b92915050565b600080604083850312156103b4576103b36104a8565b5b60006103c285828601610388565b92505060206103d385828601610388565b9150509250929050565b6000806000606084860312156103f6576103f56104a8565b5b600061040486828701610388565b935050602061041586828701610388565b925050604061042686828701610388565b9150509250925092565b61043981610492565b82525050565b6104488161049e565b82525050565b60006040820190506104636000830185610430565b610470602083018461043f565b9392505050565b600060208201905061048c600083018461043f565b92915050565b60008115159050919050565b6000819050919050565b600080fd5b6104b68161049e565b81146104c157600080fd5b5056fea264697066735822122026791c31eaa88af92fcb9b2161a3255310375f8dc4b8658f57194aa1a4dee52464736f6c63430008070033",
  "immutableReferences": {
    "3": [
      {
        "length": 32,
        "start": 199
      },
      {
        "length": 32,
        "start": 549
      }
    ]
  },
  "source": "// SPDX-License-Identifier: MIT\r\npragma solidity ^0.8.7;\r\n\r\n\r\n// gas estimate: \r\n// deploy: 329429\r\ncontract BWS_DatabaseImmutable {\r\n  \r\n    // These will be assigned at the construction\r\n    // phase, where `msg.sender` is the account\r\n    // creating this contract.\r\n    address private immutable owner;\r\n    \r\n    // \"table\" definition\r\n    struct bytes32Column {\r\n        bool created;\r\n        bytes32 value;\r\n    }\r\n    mapping (bytes32 => mapping(bytes32 => bytes32Column)) public myBytes32Table;\r\n\r\n    // events\r\n    event LogOwner (address indexed owner);\r\n\r\n    // exceptions\r\n    error Unauthorized();\r\n    error NoData();\r\n    error RowKeyInUse();\r\n\r\n    constructor() {\r\n        owner = msg.sender;\r\n        emit LogOwner(msg.sender);\r\n    }\r\n\r\n    modifier onlyBy(address _account)\r\n    {\r\n        if (msg.sender != _account)\r\n            revert Unauthorized();\r\n        // Do not forget the \"_;\"! It will\r\n        // be replaced by the actual function\r\n        // body when the modifier is used.\r\n        _;\r\n    }\r\n\r\n    // identity represents th \"user\" that owns the \"database\"\r\n    // and is (for now) generated and stored by Blockchain Web Services.\r\n    function insertBytes32(bytes32 identity, bytes32 key, bytes32 data)\r\n        public\r\n        onlyBy(owner)\r\n    {\r\n        if (!myBytes32Table[identity][key].created){\r\n          myBytes32Table[identity][key].created = true;\r\n          myBytes32Table[identity][key].value = data;\r\n        }\r\n        else\r\n          revert RowKeyInUse();\r\n    }\r\n\r\n    function selectBytes32(bytes32 identity, bytes32 key)\r\n        public view \r\n        onlyBy(owner)\r\n        returns (bytes32)\r\n    {\r\n        if (!myBytes32Table[identity][key].created)\r\n          revert NoData();     \r\n        return myBytes32Table[identity][key].value; \r\n    }\r\n\r\n}",
  "sourcePath": "X:\\Git\\nacho.coll\\blockchain-web-services\\blockchain-web-services\\contracts\\ethereum\\database\\immutable\\BWS_DatabaseImmutable.sol",
  "compiler": {
    "name": "solc",
    "version": "0.8.7+commit.e28d00a7.Emscripten.clang"
  },
  "schemaVersion": "3.4.3",
  "updatedAt": "2021-12-26T17:22:18.738Z",
  "networkType": "ethereum",
  "devdoc": {
    "kind": "dev",
    "methods": {},
    "version": 1
  },
  "userdoc": {
    "kind": "user",
    "methods": {},
    "version": 1
  }
}